{
  "address": "0x3b014738174f34566e8C9fFBc56f17f648f0b85F",
  "abi": [
    {
      "inputs": [
        {
          "internalType": "address",
          "name": "_cryptoDevsContrac",
          "type": "address"
        }
      ],
      "stateMutability": "nonpayable",
      "type": "constructor"
    },
    {
      "inputs": [],
      "name": "CryptoTurtelToken__AllTokensClaimed",
      "type": "error"
    },
    {
      "inputs": [],
      "name": "CryptoTurtelToken__FailedTransferEther",
      "type": "error"
    },
    {
      "inputs": [],
      "name": "CryptoTurtelToken__NoNFTOwnership",
      "type": "error"
    },
    {
      "inputs": [],
      "name": "CryptoTurtleToken__NotEnoughEther",
      "type": "error"
    },
    {
      "inputs": [],
      "name": "CryptoTurtleToken__OverflowMaximumSupply",
      "type": "error"
    },
    {
      "anonymous": false,
      "inputs": [
        {
          "indexed": true,
          "internalType": "address",
          "name": "owner",
          "type": "address"
        },
        {
          "indexed": true,
          "internalType": "address",
          "name": "spender",
          "type": "address"
        },
        {
          "indexed": false,
          "internalType": "uint256",
          "name": "value",
          "type": "uint256"
        }
      ],
      "name": "Approval",
      "type": "event"
    },
    {
      "anonymous": false,
      "inputs": [
        {
          "indexed": true,
          "internalType": "address",
          "name": "previousOwner",
          "type": "address"
        },
        {
          "indexed": true,
          "internalType": "address",
          "name": "newOwner",
          "type": "address"
        }
      ],
      "name": "OwnershipTransferred",
      "type": "event"
    },
    {
      "anonymous": false,
      "inputs": [
        {
          "indexed": true,
          "internalType": "address",
          "name": "from",
          "type": "address"
        },
        {
          "indexed": true,
          "internalType": "address",
          "name": "to",
          "type": "address"
        },
        {
          "indexed": false,
          "internalType": "uint256",
          "name": "value",
          "type": "uint256"
        }
      ],
      "name": "Transfer",
      "type": "event"
    },
    {
      "stateMutability": "payable",
      "type": "fallback"
    },
    {
      "inputs": [],
      "name": "MAX_TOTAL_SUPPLY",
      "outputs": [
        {
          "internalType": "uint256",
          "name": "",
          "type": "uint256"
        }
      ],
      "stateMutability": "view",
      "type": "function"
    },
    {
      "inputs": [],
      "name": "TOKEN_PER_NFT",
      "outputs": [
        {
          "internalType": "uint256",
          "name": "",
          "type": "uint256"
        }
      ],
      "stateMutability": "view",
      "type": "function"
    },
    {
      "inputs": [],
      "name": "TOKEN_PRICE",
      "outputs": [
        {
          "internalType": "uint256",
          "name": "",
          "type": "uint256"
        }
      ],
      "stateMutability": "view",
      "type": "function"
    },
    {
      "inputs": [
        {
          "internalType": "address",
          "name": "owner",
          "type": "address"
        },
        {
          "internalType": "address",
          "name": "spender",
          "type": "address"
        }
      ],
      "name": "allowance",
      "outputs": [
        {
          "internalType": "uint256",
          "name": "",
          "type": "uint256"
        }
      ],
      "stateMutability": "view",
      "type": "function"
    },
    {
      "inputs": [
        {
          "internalType": "address",
          "name": "spender",
          "type": "address"
        },
        {
          "internalType": "uint256",
          "name": "amount",
          "type": "uint256"
        }
      ],
      "name": "approve",
      "outputs": [
        {
          "internalType": "bool",
          "name": "",
          "type": "bool"
        }
      ],
      "stateMutability": "nonpayable",
      "type": "function"
    },
    {
      "inputs": [
        {
          "internalType": "address",
          "name": "account",
          "type": "address"
        }
      ],
      "name": "balanceOf",
      "outputs": [
        {
          "internalType": "uint256",
          "name": "",
          "type": "uint256"
        }
      ],
      "stateMutability": "view",
      "type": "function"
    },
    {
      "inputs": [],
      "name": "claim",
      "outputs": [],
      "stateMutability": "nonpayable",
      "type": "function"
    },
    {
      "inputs": [],
      "name": "decimals",
      "outputs": [
        {
          "internalType": "uint8",
          "name": "",
          "type": "uint8"
        }
      ],
      "stateMutability": "view",
      "type": "function"
    },
    {
      "inputs": [
        {
          "internalType": "address",
          "name": "spender",
          "type": "address"
        },
        {
          "internalType": "uint256",
          "name": "subtractedValue",
          "type": "uint256"
        }
      ],
      "name": "decreaseAllowance",
      "outputs": [
        {
          "internalType": "bool",
          "name": "",
          "type": "bool"
        }
      ],
      "stateMutability": "nonpayable",
      "type": "function"
    },
    {
      "inputs": [
        {
          "internalType": "address",
          "name": "spender",
          "type": "address"
        },
        {
          "internalType": "uint256",
          "name": "addedValue",
          "type": "uint256"
        }
      ],
      "name": "increaseAllowance",
      "outputs": [
        {
          "internalType": "bool",
          "name": "",
          "type": "bool"
        }
      ],
      "stateMutability": "nonpayable",
      "type": "function"
    },
    {
      "inputs": [
        {
          "internalType": "uint256",
          "name": "amount",
          "type": "uint256"
        }
      ],
      "name": "mint",
      "outputs": [],
      "stateMutability": "payable",
      "type": "function"
    },
    {
      "inputs": [],
      "name": "name",
      "outputs": [
        {
          "internalType": "string",
          "name": "",
          "type": "string"
        }
      ],
      "stateMutability": "view",
      "type": "function"
    },
    {
      "inputs": [],
      "name": "owner",
      "outputs": [
        {
          "internalType": "address",
          "name": "",
          "type": "address"
        }
      ],
      "stateMutability": "view",
      "type": "function"
    },
    {
      "inputs": [],
      "name": "renounceOwnership",
      "outputs": [],
      "stateMutability": "nonpayable",
      "type": "function"
    },
    {
      "inputs": [
        {
          "internalType": "uint256",
          "name": "",
          "type": "uint256"
        }
      ],
      "name": "s_tokenIdsClaimed",
      "outputs": [
        {
          "internalType": "bool",
          "name": "",
          "type": "bool"
        }
      ],
      "stateMutability": "view",
      "type": "function"
    },
    {
      "inputs": [],
      "name": "symbol",
      "outputs": [
        {
          "internalType": "string",
          "name": "",
          "type": "string"
        }
      ],
      "stateMutability": "view",
      "type": "function"
    },
    {
      "inputs": [],
      "name": "totalSupply",
      "outputs": [
        {
          "internalType": "uint256",
          "name": "",
          "type": "uint256"
        }
      ],
      "stateMutability": "view",
      "type": "function"
    },
    {
      "inputs": [
        {
          "internalType": "address",
          "name": "to",
          "type": "address"
        },
        {
          "internalType": "uint256",
          "name": "amount",
          "type": "uint256"
        }
      ],
      "name": "transfer",
      "outputs": [
        {
          "internalType": "bool",
          "name": "",
          "type": "bool"
        }
      ],
      "stateMutability": "nonpayable",
      "type": "function"
    },
    {
      "inputs": [
        {
          "internalType": "address",
          "name": "from",
          "type": "address"
        },
        {
          "internalType": "address",
          "name": "to",
          "type": "address"
        },
        {
          "internalType": "uint256",
          "name": "amount",
          "type": "uint256"
        }
      ],
      "name": "transferFrom",
      "outputs": [
        {
          "internalType": "bool",
          "name": "",
          "type": "bool"
        }
      ],
      "stateMutability": "nonpayable",
      "type": "function"
    },
    {
      "inputs": [
        {
          "internalType": "address",
          "name": "newOwner",
          "type": "address"
        }
      ],
      "name": "transferOwnership",
      "outputs": [],
      "stateMutability": "nonpayable",
      "type": "function"
    },
    {
      "inputs": [],
      "name": "withdraw",
      "outputs": [],
      "stateMutability": "nonpayable",
      "type": "function"
    },
    {
      "stateMutability": "payable",
      "type": "receive"
    }
  ],
  "transactionHash": "0x1e0a59aa56c7e537d1b77c920ded0763c487867d34e98707c18313c69c3faf77",
  "args": [
    "0xcc8aCfF32d83E49126519E0904977165A7b07Fc6"
  ],
  "numDeployments": 1,
  "solcInputHash": "a0e6e812e7db7f236277e7f6df19bbe1",
  "bytecode": "0x60806040523480156200001157600080fd5b50604051620023db380380620023db833981810160405281019062000037919062000327565b6040518060400160405280601381526020017f43727970746f20547572746c6520546f6b656e000000000000000000000000008152506040518060400160405280600281526020017f43540000000000000000000000000000000000000000000000000000000000008152508160039080519060200190620000bb9291906200020d565b508060049080519060200190620000d49291906200020d565b505050620000f7620000eb6200013f60201b60201c565b6200014760201b60201c565b80600660006101000a81548173ffffffffffffffffffffffffffffffffffffffff021916908373ffffffffffffffffffffffffffffffffffffffff16021790555050620003be565b600033905090565b6000600560009054906101000a900473ffffffffffffffffffffffffffffffffffffffff16905081600560006101000a81548173ffffffffffffffffffffffffffffffffffffffff021916908373ffffffffffffffffffffffffffffffffffffffff1602179055508173ffffffffffffffffffffffffffffffffffffffff168173ffffffffffffffffffffffffffffffffffffffff167f8be0079c531659141344cd1fd0a4f28419497f9722a3daafe3b4186f6b6457e060405160405180910390a35050565b8280546200021b9062000388565b90600052602060002090601f0160209004810192826200023f57600085556200028b565b82601f106200025a57805160ff19168380011785556200028b565b828001600101855582156200028b579182015b828111156200028a5782518255916020019190600101906200026d565b5b5090506200029a91906200029e565b5090565b5b80821115620002b95760008160009055506001016200029f565b5090565b600080fd5b600073ffffffffffffffffffffffffffffffffffffffff82169050919050565b6000620002ef82620002c2565b9050919050565b6200030181620002e2565b81146200030d57600080fd5b50565b6000815190506200032181620002f6565b92915050565b60006020828403121562000340576200033f620002bd565b5b6000620003508482850162000310565b91505092915050565b7f4e487b7100000000000000000000000000000000000000000000000000000000600052602260045260246000fd5b60006002820490506001821680620003a157607f821691505b60208210811415620003b857620003b762000359565b5b50919050565b61200d80620003ce6000396000f3fe60806040526004361061012e5760003560e01c806370a08231116100ab578063a457c2d71161006f578063a457c2d7146103cb578063a9059cbb14610408578063d2d8cb6714610445578063dd62ed3e14610470578063dd6620f4146104ad578063f2fde38b146104d857610135565b806370a0823114610305578063715018a6146103425780638da5cb5b1461035957806395d89b4114610384578063a0712d68146103af57610135565b8063313ce567116100f2578063313ce5671461024457806333039d3d1461026f578063395093511461029a5780633ccfd60b146102d75780634e71d92d146102ee57610135565b806306fdde0314610137578063095ea7b31461016257806318160ddd1461019f5780631c137f0b146101ca57806323b872dd1461020757610135565b3661013557005b005b34801561014357600080fd5b5061014c610501565b6040516101599190611552565b60405180910390f35b34801561016e57600080fd5b506101896004803603810190610184919061160d565b610593565b6040516101969190611668565b60405180910390f35b3480156101ab57600080fd5b506101b46105b6565b6040516101c19190611692565b60405180910390f35b3480156101d657600080fd5b506101f160048036038101906101ec91906116ad565b6105c0565b6040516101fe9190611668565b60405180910390f35b34801561021357600080fd5b5061022e600480360381019061022991906116da565b6105e0565b60405161023b9190611668565b60405180910390f35b34801561025057600080fd5b5061025961060f565b6040516102669190611749565b60405180910390f35b34801561027b57600080fd5b50610284610618565b6040516102919190611692565b60405180910390f35b3480156102a657600080fd5b506102c160048036038101906102bc919061160d565b610626565b6040516102ce9190611668565b60405180910390f35b3480156102e357600080fd5b506102ec61065d565b005b3480156102fa57600080fd5b5061030361071e565b005b34801561031157600080fd5b5061032c60048036038101906103279190611764565b61098f565b6040516103399190611692565b60405180910390f35b34801561034e57600080fd5b506103576109d7565b005b34801561036557600080fd5b5061036e6109eb565b60405161037b91906117a0565b60405180910390f35b34801561039057600080fd5b50610399610a15565b6040516103a69190611552565b60405180910390f35b6103c960048036038101906103c491906116ad565b610aa7565b005b3480156103d757600080fd5b506103f260048036038101906103ed919061160d565b610b6f565b6040516103ff9190611668565b60405180910390f35b34801561041457600080fd5b5061042f600480360381019061042a919061160d565b610be6565b60405161043c9190611668565b60405180910390f35b34801561045157600080fd5b5061045a610c09565b6040516104679190611692565b60405180910390f35b34801561047c57600080fd5b50610497600480360381019061049291906117bb565b610c14565b6040516104a49190611692565b60405180910390f35b3480156104b957600080fd5b506104c2610c9b565b6040516104cf9190611692565b60405180910390f35b3480156104e457600080fd5b506104ff60048036038101906104fa9190611764565b610ca7565b005b6060600380546105109061182a565b80601f016020809104026020016040519081016040528092919081815260200182805461053c9061182a565b80156105895780601f1061055e57610100808354040283529160200191610589565b820191906000526020600020905b81548152906001019060200180831161056c57829003601f168201915b5050505050905090565b60008061059e610d2b565b90506105ab818585610d33565b600191505092915050565b6000600254905090565b60076020528060005260406000206000915054906101000a900460ff1681565b6000806105eb610d2b565b90506105f8858285610efe565b610603858585610f8a565b60019150509392505050565b60006012905090565b69021e19e0c9bab240000081565b600080610631610d2b565b90506106528185856106438589610c14565b61064d919061188b565b610d33565b600191505092915050565b61066561120b565b600061066f6109eb565b9050600047905060008273ffffffffffffffffffffffffffffffffffffffff168260405161069c90611912565b60006040518083038185875af1925050503d80600081146106d9576040519150601f19603f3d011682016040523d82523d6000602084013e6106de565b606091505b5050905080610719576040517fe8f0058900000000000000000000000000000000000000000000000000000000815260040160405180910390fd5b505050565b6000600660009054906101000a900473ffffffffffffffffffffffffffffffffffffffff1673ffffffffffffffffffffffffffffffffffffffff166370a08231336040518263ffffffff1660e01b815260040161077b91906117a0565b60206040518083038186803b15801561079357600080fd5b505afa1580156107a7573d6000803e3d6000fd5b505050506040513d601f19601f820116820180604052508101906107cb919061193c565b90506000811415610808576040517f158f222100000000000000000000000000000000000000000000000000000000815260040160405180910390fd5b600080600090505b82811015610945576000600660009054906101000a900473ffffffffffffffffffffffffffffffffffffffff1673ffffffffffffffffffffffffffffffffffffffff16632f745c5933846040518363ffffffff1660e01b8152600401610877929190611969565b60206040518083038186803b15801561088f57600080fd5b505afa1580156108a3573d6000803e3d6000fd5b505050506040513d601f19601f820116820180604052508101906108c7919061193c565b90506007600082815260200190815260200160002060009054906101000a900460ff1661093157678ac7230489e8000083610902919061188b565b925060016007600083815260200190815260200160002060006101000a81548160ff0219169083151502179055505b50808061093d90611992565b915050610810565b506000811415610981576040517f152b6a8c00000000000000000000000000000000000000000000000000000000815260040160405180910390fd5b61098b3382611289565b5050565b60008060008373ffffffffffffffffffffffffffffffffffffffff1673ffffffffffffffffffffffffffffffffffffffff168152602001908152602001600020549050919050565b6109df61120b565b6109e960006113e9565b565b6000600560009054906101000a900473ffffffffffffffffffffffffffffffffffffffff16905090565b606060048054610a249061182a565b80601f0160208091040260200160405190810160405280929190818152602001828054610a509061182a565b8015610a9d5780601f10610a7257610100808354040283529160200191610a9d565b820191906000526020600020905b815481529060010190602001808311610a8057829003601f168201915b5050505050905090565b6000670de0b6b3a76400008266038d7ea4c68000610ac591906119db565b610acf9190611a64565b905080341015610b0b576040517f8ef4194700000000000000000000000000000000000000000000000000000000815260040160405180910390fd5b69021e19e0c9bab240000082610b1f6105b6565b610b29919061188b565b1115610b61576040517fcd667b1700000000000000000000000000000000000000000000000000000000815260040160405180910390fd5b610b6b3383611289565b5050565b600080610b7a610d2b565b90506000610b888286610c14565b905083811015610bcd576040517f08c379a0000000000000000000000000000000000000000000000000000000008152600401610bc490611b07565b60405180910390fd5b610bda8286868403610d33565b60019250505092915050565b600080610bf1610d2b565b9050610bfe818585610f8a565b600191505092915050565b66038d7ea4c6800081565b6000600160008473ffffffffffffffffffffffffffffffffffffffff1673ffffffffffffffffffffffffffffffffffffffff16815260200190815260200160002060008373ffffffffffffffffffffffffffffffffffffffff1673ffffffffffffffffffffffffffffffffffffffff16815260200190815260200160002054905092915050565b678ac7230489e8000081565b610caf61120b565b600073ffffffffffffffffffffffffffffffffffffffff168173ffffffffffffffffffffffffffffffffffffffff161415610d1f576040517f08c379a0000000000000000000000000000000000000000000000000000000008152600401610d1690611b99565b60405180910390fd5b610d28816113e9565b50565b600033905090565b600073ffffffffffffffffffffffffffffffffffffffff168373ffffffffffffffffffffffffffffffffffffffff161415610da3576040517f08c379a0000000000000000000000000000000000000000000000000000000008152600401610d9a90611c2b565b60405180910390fd5b600073ffffffffffffffffffffffffffffffffffffffff168273ffffffffffffffffffffffffffffffffffffffff161415610e13576040517f08c379a0000000000000000000000000000000000000000000000000000000008152600401610e0a90611cbd565b60405180910390fd5b80600160008573ffffffffffffffffffffffffffffffffffffffff1673ffffffffffffffffffffffffffffffffffffffff16815260200190815260200160002060008473ffffffffffffffffffffffffffffffffffffffff1673ffffffffffffffffffffffffffffffffffffffff168152602001908152602001600020819055508173ffffffffffffffffffffffffffffffffffffffff168373ffffffffffffffffffffffffffffffffffffffff167f8c5be1e5ebec7d5bd14f71427d1e84f3dd0314c0f7b2291e5b200ac8c7c3b92583604051610ef19190611692565b60405180910390a3505050565b6000610f0a8484610c14565b90507fffffffffffffffffffffffffffffffffffffffffffffffffffffffffffffffff8114610f845781811015610f76576040517f08c379a0000000000000000000000000000000000000000000000000000000008152600401610f6d90611d29565b60405180910390fd5b610f838484848403610d33565b5b50505050565b600073ffffffffffffffffffffffffffffffffffffffff168373ffffffffffffffffffffffffffffffffffffffff161415610ffa576040517f08c379a0000000000000000000000000000000000000000000000000000000008152600401610ff190611dbb565b60405180910390fd5b600073ffffffffffffffffffffffffffffffffffffffff168273ffffffffffffffffffffffffffffffffffffffff16141561106a576040517f08c379a000000000000000000000000000000000000000000000000000000000815260040161106190611e4d565b60405180910390fd5b6110758383836114af565b60008060008573ffffffffffffffffffffffffffffffffffffffff1673ffffffffffffffffffffffffffffffffffffffff168152602001908152602001600020549050818110156110fb576040517f08c379a00000000000000000000000000000000000000000000000000000000081526004016110f290611edf565b60405180910390fd5b8181036000808673ffffffffffffffffffffffffffffffffffffffff1673ffffffffffffffffffffffffffffffffffffffff16815260200190815260200160002081905550816000808573ffffffffffffffffffffffffffffffffffffffff1673ffffffffffffffffffffffffffffffffffffffff168152602001908152602001600020600082825461118e919061188b565b925050819055508273ffffffffffffffffffffffffffffffffffffffff168473ffffffffffffffffffffffffffffffffffffffff167fddf252ad1be2c89b69c2b068fc378daa952ba7f163c4a11628f55a4df523b3ef846040516111f29190611692565b60405180910390a36112058484846114b4565b50505050565b611213610d2b565b73ffffffffffffffffffffffffffffffffffffffff166112316109eb565b73ffffffffffffffffffffffffffffffffffffffff1614611287576040517f08c379a000000000000000000000000000000000000000000000000000000000815260040161127e90611f4b565b60405180910390fd5b565b600073ffffffffffffffffffffffffffffffffffffffff168273ffffffffffffffffffffffffffffffffffffffff1614156112f9576040517f08c379a00000000000000000000000000000000000000000000000000000000081526004016112f090611fb7565b60405180910390fd5b611305600083836114af565b8060026000828254611317919061188b565b92505081905550806000808473ffffffffffffffffffffffffffffffffffffffff1673ffffffffffffffffffffffffffffffffffffffff168152602001908152602001600020600082825461136c919061188b565b925050819055508173ffffffffffffffffffffffffffffffffffffffff16600073ffffffffffffffffffffffffffffffffffffffff167fddf252ad1be2c89b69c2b068fc378daa952ba7f163c4a11628f55a4df523b3ef836040516113d19190611692565b60405180910390a36113e5600083836114b4565b5050565b6000600560009054906101000a900473ffffffffffffffffffffffffffffffffffffffff16905081600560006101000a81548173ffffffffffffffffffffffffffffffffffffffff021916908373ffffffffffffffffffffffffffffffffffffffff1602179055508173ffffffffffffffffffffffffffffffffffffffff168173ffffffffffffffffffffffffffffffffffffffff167f8be0079c531659141344cd1fd0a4f28419497f9722a3daafe3b4186f6b6457e060405160405180910390a35050565b505050565b505050565b600081519050919050565b600082825260208201905092915050565b60005b838110156114f35780820151818401526020810190506114d8565b83811115611502576000848401525b50505050565b6000601f19601f8301169050919050565b6000611524826114b9565b61152e81856114c4565b935061153e8185602086016114d5565b61154781611508565b840191505092915050565b6000602082019050818103600083015261156c8184611519565b905092915050565b600080fd5b600073ffffffffffffffffffffffffffffffffffffffff82169050919050565b60006115a482611579565b9050919050565b6115b481611599565b81146115bf57600080fd5b50565b6000813590506115d1816115ab565b92915050565b6000819050919050565b6115ea816115d7565b81146115f557600080fd5b50565b600081359050611607816115e1565b92915050565b6000806040838503121561162457611623611574565b5b6000611632858286016115c2565b9250506020611643858286016115f8565b9150509250929050565b60008115159050919050565b6116628161164d565b82525050565b600060208201905061167d6000830184611659565b92915050565b61168c816115d7565b82525050565b60006020820190506116a76000830184611683565b92915050565b6000602082840312156116c3576116c2611574565b5b60006116d1848285016115f8565b91505092915050565b6000806000606084860312156116f3576116f2611574565b5b6000611701868287016115c2565b9350506020611712868287016115c2565b9250506040611723868287016115f8565b9150509250925092565b600060ff82169050919050565b6117438161172d565b82525050565b600060208201905061175e600083018461173a565b92915050565b60006020828403121561177a57611779611574565b5b6000611788848285016115c2565b91505092915050565b61179a81611599565b82525050565b60006020820190506117b56000830184611791565b92915050565b600080604083850312156117d2576117d1611574565b5b60006117e0858286016115c2565b92505060206117f1858286016115c2565b9150509250929050565b7f4e487b7100000000000000000000000000000000000000000000000000000000600052602260045260246000fd5b6000600282049050600182168061184257607f821691505b60208210811415611856576118556117fb565b5b50919050565b7f4e487b7100000000000000000000000000000000000000000000000000000000600052601160045260246000fd5b6000611896826115d7565b91506118a1836115d7565b9250827fffffffffffffffffffffffffffffffffffffffffffffffffffffffffffffffff038211156118d6576118d561185c565b5b828201905092915050565b600081905092915050565b50565b60006118fc6000836118e1565b9150611907826118ec565b600082019050919050565b600061191d826118ef565b9150819050919050565b600081519050611936816115e1565b92915050565b60006020828403121561195257611951611574565b5b600061196084828501611927565b91505092915050565b600060408201905061197e6000830185611791565b61198b6020830184611683565b9392505050565b600061199d826115d7565b91507fffffffffffffffffffffffffffffffffffffffffffffffffffffffffffffffff8214156119d0576119cf61185c565b5b600182019050919050565b60006119e6826115d7565b91506119f1836115d7565b9250817fffffffffffffffffffffffffffffffffffffffffffffffffffffffffffffffff0483118215151615611a2a57611a2961185c565b5b828202905092915050565b7f4e487b7100000000000000000000000000000000000000000000000000000000600052601260045260246000fd5b6000611a6f826115d7565b9150611a7a836115d7565b925082611a8a57611a89611a35565b5b828204905092915050565b7f45524332303a2064656372656173656420616c6c6f77616e63652062656c6f7760008201527f207a65726f000000000000000000000000000000000000000000000000000000602082015250565b6000611af16025836114c4565b9150611afc82611a95565b604082019050919050565b60006020820190508181036000830152611b2081611ae4565b9050919050565b7f4f776e61626c653a206e6577206f776e657220697320746865207a65726f206160008201527f6464726573730000000000000000000000000000000000000000000000000000602082015250565b6000611b836026836114c4565b9150611b8e82611b27565b604082019050919050565b60006020820190508181036000830152611bb281611b76565b9050919050565b7f45524332303a20617070726f76652066726f6d20746865207a65726f2061646460008201527f7265737300000000000000000000000000000000000000000000000000000000602082015250565b6000611c156024836114c4565b9150611c2082611bb9565b604082019050919050565b60006020820190508181036000830152611c4481611c08565b9050919050565b7f45524332303a20617070726f766520746f20746865207a65726f20616464726560008201527f7373000000000000000000000000000000000000000000000000000000000000602082015250565b6000611ca76022836114c4565b9150611cb282611c4b565b604082019050919050565b60006020820190508181036000830152611cd681611c9a565b9050919050565b7f45524332303a20696e73756666696369656e7420616c6c6f77616e6365000000600082015250565b6000611d13601d836114c4565b9150611d1e82611cdd565b602082019050919050565b60006020820190508181036000830152611d4281611d06565b9050919050565b7f45524332303a207472616e736665722066726f6d20746865207a65726f20616460008201527f6472657373000000000000000000000000000000000000000000000000000000602082015250565b6000611da56025836114c4565b9150611db082611d49565b604082019050919050565b60006020820190508181036000830152611dd481611d98565b9050919050565b7f45524332303a207472616e7366657220746f20746865207a65726f206164647260008201527f6573730000000000000000000000000000000000000000000000000000000000602082015250565b6000611e376023836114c4565b9150611e4282611ddb565b604082019050919050565b60006020820190508181036000830152611e6681611e2a565b9050919050565b7f45524332303a207472616e7366657220616d6f756e742065786365656473206260008201527f616c616e63650000000000000000000000000000000000000000000000000000602082015250565b6000611ec96026836114c4565b9150611ed482611e6d565b604082019050919050565b60006020820190508181036000830152611ef881611ebc565b9050919050565b7f4f776e61626c653a2063616c6c6572206973206e6f7420746865206f776e6572600082015250565b6000611f356020836114c4565b9150611f4082611eff565b602082019050919050565b60006020820190508181036000830152611f6481611f28565b9050919050565b7f45524332303a206d696e7420746f20746865207a65726f206164647265737300600082015250565b6000611fa1601f836114c4565b9150611fac82611f6b565b602082019050919050565b60006020820190508181036000830152611fd081611f94565b905091905056fea26469706673582212203ed3c36f1e80b925b911a8d85ef8888a6430eede95b116a5c76699f1217bb20164736f6c63430008090033",
  "devdoc": {
    "kind": "dev",
    "methods": {
      "allowance(address,address)": {
        "details": "See {IERC20-allowance}."
      },
      "approve(address,uint256)": {
        "details": "See {IERC20-approve}. NOTE: If `amount` is the maximum `uint256`, the allowance is not updated on `transferFrom`. This is semantically equivalent to an infinite approval. Requirements: - `spender` cannot be the zero address."
      },
      "balanceOf(address)": {
        "details": "See {IERC20-balanceOf}."
      },
      "claim()": {
        "details": "all NFT owner can claim a total of 10 tokens for free (10 for each NFT Token) Requirements:  - The amount of NFT Tokens have to be greater than 0  - Tokens should have not been claimed for all the NFTs owned by the sender"
      },
      "decimals()": {
        "details": "Returns the number of decimals used to get its user representation. For example, if `decimals` equals `2`, a balance of `505` tokens should be displayed to a user as `5.05` (`505 / 10 ** 2`). Tokens usually opt for a value of 18, imitating the relationship between Ether and Wei. This is the value {ERC20} uses, unless this function is overridden; NOTE: This information is only used for _display_ purposes: it in no way affects any of the arithmetic of the contract, including {IERC20-balanceOf} and {IERC20-transfer}."
      },
      "decreaseAllowance(address,uint256)": {
        "details": "Atomically decreases the allowance granted to `spender` by the caller. This is an alternative to {approve} that can be used as a mitigation for problems described in {IERC20-approve}. Emits an {Approval} event indicating the updated allowance. Requirements: - `spender` cannot be the zero address. - `spender` must have allowance for the caller of at least `subtractedValue`."
      },
      "increaseAllowance(address,uint256)": {
        "details": "Atomically increases the allowance granted to `spender` by the caller. This is an alternative to {approve} that can be used as a mitigation for problems described in {IERC20-approve}. Emits an {Approval} event indicating the updated allowance. Requirements: - `spender` cannot be the zero address."
      },
      "mint(uint256)": {
        "details": "mint new tokens till the maximum supply will be reached",
        "params": {
          "amount": "- the amount of tokens want to mint with decimals (10**18) Requirements: - `msg.value` should be equal or greater than the tokenPrice * amount"
        }
      },
      "name()": {
        "details": "Returns the name of the token."
      },
      "owner()": {
        "details": "Returns the address of the current owner."
      },
      "renounceOwnership()": {
        "details": "Leaves the contract without owner. It will not be possible to call `onlyOwner` functions anymore. Can only be called by the current owner. NOTE: Renouncing ownership will leave the contract without an owner, thereby removing any functionality that is only available to the owner."
      },
      "symbol()": {
        "details": "Returns the symbol of the token, usually a shorter version of the name."
      },
      "totalSupply()": {
        "details": "See {IERC20-totalSupply}."
      },
      "transfer(address,uint256)": {
        "details": "See {IERC20-transfer}. Requirements: - `to` cannot be the zero address. - the caller must have a balance of at least `amount`."
      },
      "transferFrom(address,address,uint256)": {
        "details": "See {IERC20-transferFrom}. Emits an {Approval} event indicating the updated allowance. This is not required by the EIP. See the note at the beginning of {ERC20}. NOTE: Does not update the allowance if the current allowance is the maximum `uint256`. Requirements: - `from` and `to` cannot be the zero address. - `from` must have a balance of at least `amount`. - the caller must have allowance for ``from``'s tokens of at least `amount`."
      },
      "transferOwnership(address)": {
        "details": "Transfers ownership of the contract to a new account (`newOwner`). Can only be called by the current owner."
      },
      "withdraw()": {
        "details": "withdraw all ETH from this contract to the owner contract Requirements:  - only the owner can withdraw the funds from this contract"
      }
    },
    "version": 1
  },
  "userdoc": {
    "kind": "user",
    "methods": {},
    "version": 1
  },
  "storageLayout": {
    "storage": [
      {
        "astId": 128,
        "contract": "contracts/CryptoTurtleToken.sol:CryptoTurtleToken",
        "label": "_balances",
        "offset": 0,
        "slot": "0",
        "type": "t_mapping(t_address,t_uint256)"
      },
      {
        "astId": 134,
        "contract": "contracts/CryptoTurtleToken.sol:CryptoTurtleToken",
        "label": "_allowances",
        "offset": 0,
        "slot": "1",
        "type": "t_mapping(t_address,t_mapping(t_address,t_uint256))"
      },
      {
        "astId": 136,
        "contract": "contracts/CryptoTurtleToken.sol:CryptoTurtleToken",
        "label": "_totalSupply",
        "offset": 0,
        "slot": "2",
        "type": "t_uint256"
      },
      {
        "astId": 138,
        "contract": "contracts/CryptoTurtleToken.sol:CryptoTurtleToken",
        "label": "_name",
        "offset": 0,
        "slot": "3",
        "type": "t_string_storage"
      },
      {
        "astId": 140,
        "contract": "contracts/CryptoTurtleToken.sol:CryptoTurtleToken",
        "label": "_symbol",
        "offset": 0,
        "slot": "4",
        "type": "t_string_storage"
      },
      {
        "astId": 7,
        "contract": "contracts/CryptoTurtleToken.sol:CryptoTurtleToken",
        "label": "_owner",
        "offset": 0,
        "slot": "5",
        "type": "t_address"
      },
      {
        "astId": 862,
        "contract": "contracts/CryptoTurtleToken.sol:CryptoTurtleToken",
        "label": "CryptoDevsNFT",
        "offset": 0,
        "slot": "6",
        "type": "t_contract(ICryptoDevs)1065"
      },
      {
        "astId": 866,
        "contract": "contracts/CryptoTurtleToken.sol:CryptoTurtleToken",
        "label": "s_tokenIdsClaimed",
        "offset": 0,
        "slot": "7",
        "type": "t_mapping(t_uint256,t_bool)"
      }
    ],
    "types": {
      "t_address": {
        "encoding": "inplace",
        "label": "address",
        "numberOfBytes": "20"
      },
      "t_bool": {
        "encoding": "inplace",
        "label": "bool",
        "numberOfBytes": "1"
      },
      "t_contract(ICryptoDevs)1065": {
        "encoding": "inplace",
        "label": "contract ICryptoDevs",
        "numberOfBytes": "20"
      },
      "t_mapping(t_address,t_mapping(t_address,t_uint256))": {
        "encoding": "mapping",
        "key": "t_address",
        "label": "mapping(address => mapping(address => uint256))",
        "numberOfBytes": "32",
        "value": "t_mapping(t_address,t_uint256)"
      },
      "t_mapping(t_address,t_uint256)": {
        "encoding": "mapping",
        "key": "t_address",
        "label": "mapping(address => uint256)",
        "numberOfBytes": "32",
        "value": "t_uint256"
      },
      "t_mapping(t_uint256,t_bool)": {
        "encoding": "mapping",
        "key": "t_uint256",
        "label": "mapping(uint256 => bool)",
        "numberOfBytes": "32",
        "value": "t_bool"
      },
      "t_string_storage": {
        "encoding": "bytes",
        "label": "string",
        "numberOfBytes": "32"
      },
      "t_uint256": {
        "encoding": "inplace",
        "label": "uint256",
        "numberOfBytes": "32"
      }
    }
  }
}