{
  "address": "0xcc8aCfF32d83E49126519E0904977165A7b07Fc6",
  "abi": [
    {
      "inputs": [
        {
          "internalType": "string",
          "name": "baseURI",
          "type": "string"
        },
        {
          "internalType": "address",
          "name": "whitelistContract",
          "type": "address"
        },
        {
          "internalType": "string",
          "name": "name",
          "type": "string"
        },
        {
          "internalType": "string",
          "name": "symbol",
          "type": "string"
        }
      ],
      "stateMutability": "nonpayable",
      "type": "constructor"
    },
    {
      "inputs": [],
      "name": "CryptoDevs__ContractPaused",
      "type": "error"
    },
    {
      "inputs": [],
      "name": "CryptoDevs__ExceedTokenSupply",
      "type": "error"
    },
    {
      "inputs": [],
      "name": "CryptoDevs__FailedEtherSend",
      "type": "error"
    },
    {
      "inputs": [],
      "name": "CryptoDevs__NotEnoughEther",
      "type": "error"
    },
    {
      "inputs": [],
      "name": "CryptoDevs__NotWhitelisted",
      "type": "error"
    },
    {
      "inputs": [],
      "name": "CryptoDevs__PresaleNotEnded",
      "type": "error"
    },
    {
      "inputs": [],
      "name": "CryptoDevs__PresaleNotRunning",
      "type": "error"
    },
    {
      "anonymous": false,
      "inputs": [
        {
          "indexed": true,
          "internalType": "address",
          "name": "owner",
          "type": "address"
        },
        {
          "indexed": true,
          "internalType": "address",
          "name": "approved",
          "type": "address"
        },
        {
          "indexed": true,
          "internalType": "uint256",
          "name": "tokenId",
          "type": "uint256"
        }
      ],
      "name": "Approval",
      "type": "event"
    },
    {
      "anonymous": false,
      "inputs": [
        {
          "indexed": true,
          "internalType": "address",
          "name": "owner",
          "type": "address"
        },
        {
          "indexed": true,
          "internalType": "address",
          "name": "operator",
          "type": "address"
        },
        {
          "indexed": false,
          "internalType": "bool",
          "name": "approved",
          "type": "bool"
        }
      ],
      "name": "ApprovalForAll",
      "type": "event"
    },
    {
      "anonymous": false,
      "inputs": [
        {
          "indexed": true,
          "internalType": "address",
          "name": "previousOwner",
          "type": "address"
        },
        {
          "indexed": true,
          "internalType": "address",
          "name": "newOwner",
          "type": "address"
        }
      ],
      "name": "OwnershipTransferred",
      "type": "event"
    },
    {
      "anonymous": false,
      "inputs": [
        {
          "indexed": true,
          "internalType": "address",
          "name": "from",
          "type": "address"
        },
        {
          "indexed": true,
          "internalType": "address",
          "name": "to",
          "type": "address"
        },
        {
          "indexed": true,
          "internalType": "uint256",
          "name": "tokenId",
          "type": "uint256"
        }
      ],
      "name": "Transfer",
      "type": "event"
    },
    {
      "stateMutability": "payable",
      "type": "fallback"
    },
    {
      "inputs": [
        {
          "internalType": "address",
          "name": "to",
          "type": "address"
        },
        {
          "internalType": "uint256",
          "name": "tokenId",
          "type": "uint256"
        }
      ],
      "name": "approve",
      "outputs": [],
      "stateMutability": "nonpayable",
      "type": "function"
    },
    {
      "inputs": [
        {
          "internalType": "address",
          "name": "owner",
          "type": "address"
        }
      ],
      "name": "balanceOf",
      "outputs": [
        {
          "internalType": "uint256",
          "name": "",
          "type": "uint256"
        }
      ],
      "stateMutability": "view",
      "type": "function"
    },
    {
      "inputs": [
        {
          "internalType": "uint256",
          "name": "tokenId",
          "type": "uint256"
        }
      ],
      "name": "getApproved",
      "outputs": [
        {
          "internalType": "address",
          "name": "",
          "type": "address"
        }
      ],
      "stateMutability": "view",
      "type": "function"
    },
    {
      "inputs": [
        {
          "internalType": "address",
          "name": "owner",
          "type": "address"
        },
        {
          "internalType": "address",
          "name": "operator",
          "type": "address"
        }
      ],
      "name": "isApprovedForAll",
      "outputs": [
        {
          "internalType": "bool",
          "name": "",
          "type": "bool"
        }
      ],
      "stateMutability": "view",
      "type": "function"
    },
    {
      "inputs": [],
      "name": "mint",
      "outputs": [],
      "stateMutability": "payable",
      "type": "function"
    },
    {
      "inputs": [],
      "name": "name",
      "outputs": [
        {
          "internalType": "string",
          "name": "",
          "type": "string"
        }
      ],
      "stateMutability": "view",
      "type": "function"
    },
    {
      "inputs": [],
      "name": "owner",
      "outputs": [
        {
          "internalType": "address",
          "name": "",
          "type": "address"
        }
      ],
      "stateMutability": "view",
      "type": "function"
    },
    {
      "inputs": [
        {
          "internalType": "uint256",
          "name": "tokenId",
          "type": "uint256"
        }
      ],
      "name": "ownerOf",
      "outputs": [
        {
          "internalType": "address",
          "name": "",
          "type": "address"
        }
      ],
      "stateMutability": "view",
      "type": "function"
    },
    {
      "inputs": [],
      "name": "presaleMint",
      "outputs": [],
      "stateMutability": "payable",
      "type": "function"
    },
    {
      "inputs": [],
      "name": "renounceOwnership",
      "outputs": [],
      "stateMutability": "nonpayable",
      "type": "function"
    },
    {
      "inputs": [],
      "name": "s_paused",
      "outputs": [
        {
          "internalType": "bool",
          "name": "",
          "type": "bool"
        }
      ],
      "stateMutability": "view",
      "type": "function"
    },
    {
      "inputs": [],
      "name": "s_presaleEnded",
      "outputs": [
        {
          "internalType": "uint256",
          "name": "",
          "type": "uint256"
        }
      ],
      "stateMutability": "view",
      "type": "function"
    },
    {
      "inputs": [],
      "name": "s_presaleStarted",
      "outputs": [
        {
          "internalType": "bool",
          "name": "",
          "type": "bool"
        }
      ],
      "stateMutability": "view",
      "type": "function"
    },
    {
      "inputs": [],
      "name": "s_tokenIds",
      "outputs": [
        {
          "internalType": "uint256",
          "name": "",
          "type": "uint256"
        }
      ],
      "stateMutability": "view",
      "type": "function"
    },
    {
      "inputs": [
        {
          "internalType": "address",
          "name": "from",
          "type": "address"
        },
        {
          "internalType": "address",
          "name": "to",
          "type": "address"
        },
        {
          "internalType": "uint256",
          "name": "tokenId",
          "type": "uint256"
        }
      ],
      "name": "safeTransferFrom",
      "outputs": [],
      "stateMutability": "nonpayable",
      "type": "function"
    },
    {
      "inputs": [
        {
          "internalType": "address",
          "name": "from",
          "type": "address"
        },
        {
          "internalType": "address",
          "name": "to",
          "type": "address"
        },
        {
          "internalType": "uint256",
          "name": "tokenId",
          "type": "uint256"
        },
        {
          "internalType": "bytes",
          "name": "data",
          "type": "bytes"
        }
      ],
      "name": "safeTransferFrom",
      "outputs": [],
      "stateMutability": "nonpayable",
      "type": "function"
    },
    {
      "inputs": [
        {
          "internalType": "address",
          "name": "operator",
          "type": "address"
        },
        {
          "internalType": "bool",
          "name": "approved",
          "type": "bool"
        }
      ],
      "name": "setApprovalForAll",
      "outputs": [],
      "stateMutability": "nonpayable",
      "type": "function"
    },
    {
      "inputs": [
        {
          "internalType": "bool",
          "name": "val",
          "type": "bool"
        }
      ],
      "name": "setPaused",
      "outputs": [],
      "stateMutability": "nonpayable",
      "type": "function"
    },
    {
      "inputs": [],
      "name": "startPresale",
      "outputs": [],
      "stateMutability": "nonpayable",
      "type": "function"
    },
    {
      "inputs": [
        {
          "internalType": "bytes4",
          "name": "interfaceId",
          "type": "bytes4"
        }
      ],
      "name": "supportsInterface",
      "outputs": [
        {
          "internalType": "bool",
          "name": "",
          "type": "bool"
        }
      ],
      "stateMutability": "view",
      "type": "function"
    },
    {
      "inputs": [],
      "name": "symbol",
      "outputs": [
        {
          "internalType": "string",
          "name": "",
          "type": "string"
        }
      ],
      "stateMutability": "view",
      "type": "function"
    },
    {
      "inputs": [
        {
          "internalType": "uint256",
          "name": "index",
          "type": "uint256"
        }
      ],
      "name": "tokenByIndex",
      "outputs": [
        {
          "internalType": "uint256",
          "name": "",
          "type": "uint256"
        }
      ],
      "stateMutability": "view",
      "type": "function"
    },
    {
      "inputs": [
        {
          "internalType": "address",
          "name": "owner",
          "type": "address"
        },
        {
          "internalType": "uint256",
          "name": "index",
          "type": "uint256"
        }
      ],
      "name": "tokenOfOwnerByIndex",
      "outputs": [
        {
          "internalType": "uint256",
          "name": "",
          "type": "uint256"
        }
      ],
      "stateMutability": "view",
      "type": "function"
    },
    {
      "inputs": [
        {
          "internalType": "uint256",
          "name": "tokenId",
          "type": "uint256"
        }
      ],
      "name": "tokenURI",
      "outputs": [
        {
          "internalType": "string",
          "name": "",
          "type": "string"
        }
      ],
      "stateMutability": "view",
      "type": "function"
    },
    {
      "inputs": [],
      "name": "totalSupply",
      "outputs": [
        {
          "internalType": "uint256",
          "name": "",
          "type": "uint256"
        }
      ],
      "stateMutability": "view",
      "type": "function"
    },
    {
      "inputs": [
        {
          "internalType": "address",
          "name": "from",
          "type": "address"
        },
        {
          "internalType": "address",
          "name": "to",
          "type": "address"
        },
        {
          "internalType": "uint256",
          "name": "tokenId",
          "type": "uint256"
        }
      ],
      "name": "transferFrom",
      "outputs": [],
      "stateMutability": "nonpayable",
      "type": "function"
    },
    {
      "inputs": [
        {
          "internalType": "address",
          "name": "newOwner",
          "type": "address"
        }
      ],
      "name": "transferOwnership",
      "outputs": [],
      "stateMutability": "nonpayable",
      "type": "function"
    },
    {
      "inputs": [],
      "name": "withdraw",
      "outputs": [],
      "stateMutability": "nonpayable",
      "type": "function"
    },
    {
      "stateMutability": "payable",
      "type": "receive"
    }
  ],
  "transactionHash": "0x0909ea5d507f031ce7d1b901e6b35a5424b964f3dcb9ac73a350ce166847e68c",
  "args": [
    "https://nft-collection-sneh1999.vercel.app/api/",
    "0x13f5E500E7Db670768Dd8daD61314C51A4081474",
    "MSW DevToken",
    "MSW"
  ],
  "numDeployments": 1,
  "solcInputHash": "cde593df7cb1fea1c4321d7d1523f3ba",
  "bytecode": "0x60c0604052662386f26fc10000608090815250601460a0908152503480156200002757600080fd5b5060405162003eba38038062003eba83398181016040528101906200004d919062000487565b8181816000908051906020019062000067929190620001d5565b50806001908051906020019062000080929190620001d5565b505050620000a3620000976200010760201b60201c565b6200010f60201b60201c565b83600b9080519060200190620000bb929190620001d5565b5082600f60006101000a81548173ffffffffffffffffffffffffffffffffffffffff021916908373ffffffffffffffffffffffffffffffffffffffff16021790555050505050620005bb565b600033905090565b6000600a60009054906101000a900473ffffffffffffffffffffffffffffffffffffffff16905081600a60006101000a81548173ffffffffffffffffffffffffffffffffffffffff021916908373ffffffffffffffffffffffffffffffffffffffff1602179055508173ffffffffffffffffffffffffffffffffffffffff168173ffffffffffffffffffffffffffffffffffffffff167f8be0079c531659141344cd1fd0a4f28419497f9722a3daafe3b4186f6b6457e060405160405180910390a35050565b828054620001e39062000585565b90600052602060002090601f01602090048101928262000207576000855562000253565b82601f106200022257805160ff191683800117855562000253565b8280016001018555821562000253579182015b828111156200025257825182559160200191906001019062000235565b5b50905062000262919062000266565b5090565b5b808211156200028157600081600090555060010162000267565b5090565b6000604051905090565b600080fd5b600080fd5b600080fd5b600080fd5b6000601f19601f8301169050919050565b7f4e487b7100000000000000000000000000000000000000000000000000000000600052604160045260246000fd5b620002ee82620002a3565b810181811067ffffffffffffffff8211171562000310576200030f620002b4565b5b80604052505050565b60006200032562000285565b9050620003338282620002e3565b919050565b600067ffffffffffffffff821115620003565762000355620002b4565b5b6200036182620002a3565b9050602081019050919050565b60005b838110156200038e57808201518184015260208101905062000371565b838111156200039e576000848401525b50505050565b6000620003bb620003b58462000338565b62000319565b905082815260208101848484011115620003da57620003d96200029e565b5b620003e78482856200036e565b509392505050565b600082601f83011262000407576200040662000299565b5b815162000419848260208601620003a4565b91505092915050565b600073ffffffffffffffffffffffffffffffffffffffff82169050919050565b60006200044f8262000422565b9050919050565b620004618162000442565b81146200046d57600080fd5b50565b600081519050620004818162000456565b92915050565b60008060008060808587031215620004a457620004a36200028f565b5b600085015167ffffffffffffffff811115620004c557620004c462000294565b5b620004d387828801620003ef565b9450506020620004e68782880162000470565b935050604085015167ffffffffffffffff8111156200050a576200050962000294565b5b6200051887828801620003ef565b925050606085015167ffffffffffffffff8111156200053c576200053b62000294565b5b6200054a87828801620003ef565b91505092959194509250565b7f4e487b7100000000000000000000000000000000000000000000000000000000600052602260045260246000fd5b600060028204905060018216806200059e57607f821691505b60208210811415620005b557620005b462000556565b5b50919050565b60805160a0516138cb620005ef600039600081816109c30152610dc00152600081816109690152610efc01526138cb6000f3fe6080604052600436106101bb5760003560e01c80634f6ccce7116100ec57806395d89b411161008a578063c2d9f3fb11610064578063c2d9f3fb146105ae578063c87b56dd146105d9578063e985e9c514610616578063f2fde38b14610653576101c2565b806395d89b4114610531578063a22cb4651461055c578063b88d4fde14610585576101c2565b80636352211e116100c65780636352211e1461047557806370a08231146104b2578063715018a6146104ef5780638da5cb5b14610506576101c2565b80634f6ccce71461040357806359533d6c14610440578063627f0c281461044a576101c2565b806318160ddd116101595780632f745c59116101335780632f745c591461035b57806339e1de07146103985780633ccfd60b146103c357806342842e0e146103da576101c2565b806318160ddd146102dc57806323b872dd146103075780632eec87ef14610330576101c2565b8063081812fc11610195578063081812fc14610243578063095ea7b3146102805780631249c58b146102a957806316c38b3c146102b3576101c2565b806301ffc9a7146101c457806304c98b2b1461020157806306fdde0314610218576101c2565b366101c257005b005b3480156101d057600080fd5b506101eb60048036038101906101e69190612724565b61067c565b6040516101f8919061276c565b60405180910390f35b34801561020d57600080fd5b506102166106f6565b005b34801561022457600080fd5b5061022d610730565b60405161023a9190612820565b60405180910390f35b34801561024f57600080fd5b5061026a60048036038101906102659190612878565b6107c2565b60405161027791906128e6565b60405180910390f35b34801561028c57600080fd5b506102a760048036038101906102a2919061292d565b610808565b005b6102b1610920565b005b3480156102bf57600080fd5b506102da60048036038101906102d59190612999565b610a7f565b005b3480156102e857600080fd5b506102f1610aa4565b6040516102fe91906129d5565b60405180910390f35b34801561031357600080fd5b5061032e600480360381019061032991906129f0565b610ab1565b005b34801561033c57600080fd5b50610345610b11565b60405161035291906129d5565b60405180910390f35b34801561036757600080fd5b50610382600480360381019061037d919061292d565b610b17565b60405161038f91906129d5565b60405180910390f35b3480156103a457600080fd5b506103ad610bbc565b6040516103ba919061276c565b60405180910390f35b3480156103cf57600080fd5b506103d8610bcf565b005b3480156103e657600080fd5b5061040160048036038101906103fc91906129f0565b610c90565b005b34801561040f57600080fd5b5061042a60048036038101906104259190612878565b610cb0565b60405161043791906129d5565b60405180910390f35b610448610d21565b005b34801561045657600080fd5b5061045f610f7c565b60405161046c91906129d5565b60405180910390f35b34801561048157600080fd5b5061049c60048036038101906104979190612878565b610f82565b6040516104a991906128e6565b60405180910390f35b3480156104be57600080fd5b506104d960048036038101906104d49190612a43565b611034565b6040516104e691906129d5565b60405180910390f35b3480156104fb57600080fd5b506105046110ec565b005b34801561051257600080fd5b5061051b611100565b60405161052891906128e6565b60405180910390f35b34801561053d57600080fd5b5061054661112a565b6040516105539190612820565b60405180910390f35b34801561056857600080fd5b50610583600480360381019061057e9190612a70565b6111bc565b005b34801561059157600080fd5b506105ac60048036038101906105a79190612be5565b6111d2565b005b3480156105ba57600080fd5b506105c3611234565b6040516105d0919061276c565b60405180910390f35b3480156105e557600080fd5b5061060060048036038101906105fb9190612878565b611247565b60405161060d9190612820565b60405180910390f35b34801561062257600080fd5b5061063d60048036038101906106389190612c68565b6112af565b60405161064a919061276c565b60405180910390f35b34801561065f57600080fd5b5061067a60048036038101906106759190612a43565b611343565b005b60007f780e9d63000000000000000000000000000000000000000000000000000000007bffffffffffffffffffffffffffffffffffffffffffffffffffffffff1916827bffffffffffffffffffffffffffffffffffffffffffffffffffffffff191614806106ef57506106ee826113c7565b5b9050919050565b6106fe6114a9565b6001600d60016101000a81548160ff02191690831515021790555062069780426107289190612cd7565b600e81905550565b60606000805461073f90612d5c565b80601f016020809104026020016040519081016040528092919081815260200182805461076b90612d5c565b80156107b85780601f1061078d576101008083540402835291602001916107b8565b820191906000526020600020905b81548152906001019060200180831161079b57829003601f168201915b5050505050905090565b60006107cd82611527565b6004600083815260200190815260200160002060009054906101000a900473ffffffffffffffffffffffffffffffffffffffff169050919050565b600061081382610f82565b90508073ffffffffffffffffffffffffffffffffffffffff168373ffffffffffffffffffffffffffffffffffffffff161415610884576040517f08c379a000000000000000000000000000000000000000000000000000000000815260040161087b90612e00565b60405180910390fd5b8073ffffffffffffffffffffffffffffffffffffffff166108a3611572565b73ffffffffffffffffffffffffffffffffffffffff1614806108d257506108d1816108cc611572565b6112af565b5b610911576040517f08c379a000000000000000000000000000000000000000000000000000000000815260040161090890612e92565b60405180910390fd5b61091b838361157a565b505050565b600d60009054906101000a900460ff1615610967576040517f29c65d6400000000000000000000000000000000000000000000000000000000815260040160405180910390fd5b7f00000000000000000000000000000000000000000000000000000000000000003410156109c1576040517f9a127d8b00000000000000000000000000000000000000000000000000000000815260040160405180910390fd5b7f0000000000000000000000000000000000000000000000000000000000000000600c5410610a1c576040517f7b2c87c800000000000000000000000000000000000000000000000000000000815260040160405180910390fd5b600e544211610a57576040517fff55d36e00000000000000000000000000000000000000000000000000000000815260040160405180910390fd5b6001600c6000828254610a6a9190612cd7565b92505081905550610a7d33600c54611633565b565b610a876114a9565b80600d60006101000a81548160ff02191690831515021790555050565b6000600880549050905090565b610ac2610abc611572565b82611651565b610b01576040517f08c379a0000000000000000000000000000000000000000000000000000000008152600401610af890612f24565b60405180910390fd5b610b0c8383836116e6565b505050565b600e5481565b6000610b2283611034565b8210610b63576040517f08c379a0000000000000000000000000000000000000000000000000000000008152600401610b5a90612fb6565b60405180910390fd5b600660008473ffffffffffffffffffffffffffffffffffffffff1673ffffffffffffffffffffffffffffffffffffffff168152602001908152602001600020600083815260200190815260200160002054905092915050565b600d60009054906101000a900460ff1681565b610bd76114a9565b6000610be1611100565b9050600047905060008273ffffffffffffffffffffffffffffffffffffffff1682604051610c0e90613007565b60006040518083038185875af1925050503d8060008114610c4b576040519150601f19603f3d011682016040523d82523d6000602084013e610c50565b606091505b5050905080610c8b576040517f2cee783700000000000000000000000000000000000000000000000000000000815260040160405180910390fd5b505050565b610cab838383604051806020016040528060008152506111d2565b505050565b6000610cba610aa4565b8210610cfb576040517f08c379a0000000000000000000000000000000000000000000000000000000008152600401610cf29061308e565b60405180910390fd5b60088281548110610d0f57610d0e6130ae565b5b90600052602060002001549050919050565b600d60009054906101000a900460ff1615610d68576040517f29c65d6400000000000000000000000000000000000000000000000000000000815260040160405180910390fd5b600d60019054906101000a900460ff16158015610d875750600e544210155b15610dbe576040517fff87cc8600000000000000000000000000000000000000000000000000000000815260040160405180910390fd5b7f0000000000000000000000000000000000000000000000000000000000000000600c5410610e19576040517f7b2c87c800000000000000000000000000000000000000000000000000000000815260040160405180910390fd5b600f60009054906101000a900473ffffffffffffffffffffffffffffffffffffffff1673ffffffffffffffffffffffffffffffffffffffff166306c933d8336040518263ffffffff1660e01b8152600401610e7491906128e6565b60206040518083038186803b158015610e8c57600080fd5b505afa158015610ea0573d6000803e3d6000fd5b505050506040513d601f19601f82011682018060405250810190610ec491906130f2565b610efa576040517f059cd8bf00000000000000000000000000000000000000000000000000000000815260040160405180910390fd5b7f0000000000000000000000000000000000000000000000000000000000000000341015610f54576040517f9a127d8b00000000000000000000000000000000000000000000000000000000815260040160405180910390fd5b6001600c6000828254610f679190612cd7565b92505081905550610f7a33600c54611633565b565b600c5481565b6000806002600084815260200190815260200160002060009054906101000a900473ffffffffffffffffffffffffffffffffffffffff169050600073ffffffffffffffffffffffffffffffffffffffff168173ffffffffffffffffffffffffffffffffffffffff16141561102b576040517f08c379a00000000000000000000000000000000000000000000000000000000081526004016110229061316b565b60405180910390fd5b80915050919050565b60008073ffffffffffffffffffffffffffffffffffffffff168273ffffffffffffffffffffffffffffffffffffffff1614156110a5576040517f08c379a000000000000000000000000000000000000000000000000000000000815260040161109c906131fd565b60405180910390fd5b600360008373ffffffffffffffffffffffffffffffffffffffff1673ffffffffffffffffffffffffffffffffffffffff168152602001908152602001600020549050919050565b6110f46114a9565b6110fe600061194d565b565b6000600a60009054906101000a900473ffffffffffffffffffffffffffffffffffffffff16905090565b60606001805461113990612d5c565b80601f016020809104026020016040519081016040528092919081815260200182805461116590612d5c565b80156111b25780601f10611187576101008083540402835291602001916111b2565b820191906000526020600020905b81548152906001019060200180831161119557829003601f168201915b5050505050905090565b6111ce6111c7611572565b8383611a13565b5050565b6111e36111dd611572565b83611651565b611222576040517f08c379a000000000000000000000000000000000000000000000000000000000815260040161121990612f24565b60405180910390fd5b61122e84848484611b80565b50505050565b600d60019054906101000a900460ff1681565b606061125282611527565b600061125c611bdc565b9050600081511161127c57604051806020016040528060008152506112a7565b8061128684611c6e565b604051602001611297929190613259565b6040516020818303038152906040525b915050919050565b6000600560008473ffffffffffffffffffffffffffffffffffffffff1673ffffffffffffffffffffffffffffffffffffffff16815260200190815260200160002060008373ffffffffffffffffffffffffffffffffffffffff1673ffffffffffffffffffffffffffffffffffffffff16815260200190815260200160002060009054906101000a900460ff16905092915050565b61134b6114a9565b600073ffffffffffffffffffffffffffffffffffffffff168173ffffffffffffffffffffffffffffffffffffffff1614156113bb576040517f08c379a00000000000000000000000000000000000000000000000000000000081526004016113b2906132ef565b60405180910390fd5b6113c48161194d565b50565b60007f80ac58cd000000000000000000000000000000000000000000000000000000007bffffffffffffffffffffffffffffffffffffffffffffffffffffffff1916827bffffffffffffffffffffffffffffffffffffffffffffffffffffffff1916148061149257507f5b5e139f000000000000000000000000000000000000000000000000000000007bffffffffffffffffffffffffffffffffffffffffffffffffffffffff1916827bffffffffffffffffffffffffffffffffffffffffffffffffffffffff1916145b806114a257506114a182611dcf565b5b9050919050565b6114b1611572565b73ffffffffffffffffffffffffffffffffffffffff166114cf611100565b73ffffffffffffffffffffffffffffffffffffffff1614611525576040517f08c379a000000000000000000000000000000000000000000000000000000000815260040161151c9061335b565b60405180910390fd5b565b61153081611e39565b61156f576040517f08c379a00000000000000000000000000000000000000000000000000000000081526004016115669061316b565b60405180910390fd5b50565b600033905090565b816004600083815260200190815260200160002060006101000a81548173ffffffffffffffffffffffffffffffffffffffff021916908373ffffffffffffffffffffffffffffffffffffffff160217905550808273ffffffffffffffffffffffffffffffffffffffff166115ed83610f82565b73ffffffffffffffffffffffffffffffffffffffff167f8c5be1e5ebec7d5bd14f71427d1e84f3dd0314c0f7b2291e5b200ac8c7c3b92560405160405180910390a45050565b61164d828260405180602001604052806000815250611ea5565b5050565b60008061165d83610f82565b90508073ffffffffffffffffffffffffffffffffffffffff168473ffffffffffffffffffffffffffffffffffffffff16148061169f575061169e81856112af565b5b806116dd57508373ffffffffffffffffffffffffffffffffffffffff166116c5846107c2565b73ffffffffffffffffffffffffffffffffffffffff16145b91505092915050565b8273ffffffffffffffffffffffffffffffffffffffff1661170682610f82565b73ffffffffffffffffffffffffffffffffffffffff161461175c576040517f08c379a0000000000000000000000000000000000000000000000000000000008152600401611753906133ed565b60405180910390fd5b600073ffffffffffffffffffffffffffffffffffffffff168273ffffffffffffffffffffffffffffffffffffffff1614156117cc576040517f08c379a00000000000000000000000000000000000000000000000000000000081526004016117c39061347f565b60405180910390fd5b6117d7838383611f00565b6117e260008261157a565b6001600360008573ffffffffffffffffffffffffffffffffffffffff1673ffffffffffffffffffffffffffffffffffffffff1681526020019081526020016000206000828254611832919061349f565b925050819055506001600360008473ffffffffffffffffffffffffffffffffffffffff1673ffffffffffffffffffffffffffffffffffffffff16815260200190815260200160002060008282546118899190612cd7565b92505081905550816002600083815260200190815260200160002060006101000a81548173ffffffffffffffffffffffffffffffffffffffff021916908373ffffffffffffffffffffffffffffffffffffffff160217905550808273ffffffffffffffffffffffffffffffffffffffff168473ffffffffffffffffffffffffffffffffffffffff167fddf252ad1be2c89b69c2b068fc378daa952ba7f163c4a11628f55a4df523b3ef60405160405180910390a4611948838383612014565b505050565b6000600a60009054906101000a900473ffffffffffffffffffffffffffffffffffffffff16905081600a60006101000a81548173ffffffffffffffffffffffffffffffffffffffff021916908373ffffffffffffffffffffffffffffffffffffffff1602179055508173ffffffffffffffffffffffffffffffffffffffff168173ffffffffffffffffffffffffffffffffffffffff167f8be0079c531659141344cd1fd0a4f28419497f9722a3daafe3b4186f6b6457e060405160405180910390a35050565b8173ffffffffffffffffffffffffffffffffffffffff168373ffffffffffffffffffffffffffffffffffffffff161415611a82576040517f08c379a0000000000000000000000000000000000000000000000000000000008152600401611a799061351f565b60405180910390fd5b80600560008573ffffffffffffffffffffffffffffffffffffffff1673ffffffffffffffffffffffffffffffffffffffff16815260200190815260200160002060008473ffffffffffffffffffffffffffffffffffffffff1673ffffffffffffffffffffffffffffffffffffffff16815260200190815260200160002060006101000a81548160ff0219169083151502179055508173ffffffffffffffffffffffffffffffffffffffff168373ffffffffffffffffffffffffffffffffffffffff167f17307eab39ab6107e8899845ad3d59bd9653f200f220920489ca2b5937696c3183604051611b73919061276c565b60405180910390a3505050565b611b8b8484846116e6565b611b9784848484612019565b611bd6576040517f08c379a0000000000000000000000000000000000000000000000000000000008152600401611bcd906135b1565b60405180910390fd5b50505050565b6060600b8054611beb90612d5c565b80601f0160208091040260200160405190810160405280929190818152602001828054611c1790612d5c565b8015611c645780601f10611c3957610100808354040283529160200191611c64565b820191906000526020600020905b815481529060010190602001808311611c4757829003601f168201915b5050505050905090565b60606000821415611cb6576040518060400160405280600181526020017f30000000000000000000000000000000000000000000000000000000000000008152509050611dca565b600082905060005b60008214611ce8578080611cd1906135d1565b915050600a82611ce19190613649565b9150611cbe565b60008167ffffffffffffffff811115611d0457611d03612aba565b5b6040519080825280601f01601f191660200182016040528015611d365781602001600182028036833780820191505090505b5090505b60008514611dc357600182611d4f919061349f565b9150600a85611d5e919061367a565b6030611d6a9190612cd7565b60f81b818381518110611d8057611d7f6130ae565b5b60200101907effffffffffffffffffffffffffffffffffffffffffffffffffffffffffffff1916908160001a905350600a85611dbc9190613649565b9450611d3a565b8093505050505b919050565b60007f01ffc9a7000000000000000000000000000000000000000000000000000000007bffffffffffffffffffffffffffffffffffffffffffffffffffffffff1916827bffffffffffffffffffffffffffffffffffffffffffffffffffffffff1916149050919050565b60008073ffffffffffffffffffffffffffffffffffffffff166002600084815260200190815260200160002060009054906101000a900473ffffffffffffffffffffffffffffffffffffffff1673ffffffffffffffffffffffffffffffffffffffff1614159050919050565b611eaf83836121b0565b611ebc6000848484612019565b611efb576040517f08c379a0000000000000000000000000000000000000000000000000000000008152600401611ef2906135b1565b60405180910390fd5b505050565b611f0b83838361238a565b600073ffffffffffffffffffffffffffffffffffffffff168373ffffffffffffffffffffffffffffffffffffffff161415611f4e57611f498161238f565b611f8d565b8173ffffffffffffffffffffffffffffffffffffffff168373ffffffffffffffffffffffffffffffffffffffff1614611f8c57611f8b83826123d8565b5b5b600073ffffffffffffffffffffffffffffffffffffffff168273ffffffffffffffffffffffffffffffffffffffff161415611fd057611fcb81612545565b61200f565b8273ffffffffffffffffffffffffffffffffffffffff168273ffffffffffffffffffffffffffffffffffffffff161461200e5761200d8282612616565b5b5b505050565b505050565b600061203a8473ffffffffffffffffffffffffffffffffffffffff16612695565b156121a3578373ffffffffffffffffffffffffffffffffffffffff1663150b7a02612063611572565b8786866040518563ffffffff1660e01b81526004016120859493929190613700565b602060405180830381600087803b15801561209f57600080fd5b505af19250505080156120d057506040513d601f19601f820116820180604052508101906120cd9190613761565b60015b612153573d8060008114612100576040519150601f19603f3d011682016040523d82523d6000602084013e612105565b606091505b5060008151141561214b576040517f08c379a0000000000000000000000000000000000000000000000000000000008152600401612142906135b1565b60405180910390fd5b805181602001fd5b63150b7a0260e01b7bffffffffffffffffffffffffffffffffffffffffffffffffffffffff1916817bffffffffffffffffffffffffffffffffffffffffffffffffffffffff1916149150506121a8565b600190505b949350505050565b600073ffffffffffffffffffffffffffffffffffffffff168273ffffffffffffffffffffffffffffffffffffffff161415612220576040517f08c379a0000000000000000000000000000000000000000000000000000000008152600401612217906137da565b60405180910390fd5b61222981611e39565b15612269576040517f08c379a000000000000000000000000000000000000000000000000000000000815260040161226090613846565b60405180910390fd5b61227560008383611f00565b6001600360008473ffffffffffffffffffffffffffffffffffffffff1673ffffffffffffffffffffffffffffffffffffffff16815260200190815260200160002060008282546122c59190612cd7565b92505081905550816002600083815260200190815260200160002060006101000a81548173ffffffffffffffffffffffffffffffffffffffff021916908373ffffffffffffffffffffffffffffffffffffffff160217905550808273ffffffffffffffffffffffffffffffffffffffff16600073ffffffffffffffffffffffffffffffffffffffff167fddf252ad1be2c89b69c2b068fc378daa952ba7f163c4a11628f55a4df523b3ef60405160405180910390a461238660008383612014565b5050565b505050565b6008805490506009600083815260200190815260200160002081905550600881908060018154018082558091505060019003906000526020600020016000909190919091505550565b600060016123e584611034565b6123ef919061349f565b90506000600760008481526020019081526020016000205490508181146124d4576000600660008673ffffffffffffffffffffffffffffffffffffffff1673ffffffffffffffffffffffffffffffffffffffff168152602001908152602001600020600084815260200190815260200160002054905080600660008773ffffffffffffffffffffffffffffffffffffffff1673ffffffffffffffffffffffffffffffffffffffff168152602001908152602001600020600084815260200190815260200160002081905550816007600083815260200190815260200160002081905550505b6007600084815260200190815260200160002060009055600660008573ffffffffffffffffffffffffffffffffffffffff1673ffffffffffffffffffffffffffffffffffffffff16815260200190815260200160002060008381526020019081526020016000206000905550505050565b60006001600880549050612559919061349f565b9050600060096000848152602001908152602001600020549050600060088381548110612589576125886130ae565b5b9060005260206000200154905080600883815481106125ab576125aa6130ae565b5b9060005260206000200181905550816009600083815260200190815260200160002081905550600960008581526020019081526020016000206000905560088054806125fa576125f9613866565b5b6001900381819060005260206000200160009055905550505050565b600061262183611034565b905081600660008573ffffffffffffffffffffffffffffffffffffffff1673ffffffffffffffffffffffffffffffffffffffff168152602001908152602001600020600083815260200190815260200160002081905550806007600084815260200190815260200160002081905550505050565b6000808273ffffffffffffffffffffffffffffffffffffffff163b119050919050565b6000604051905090565b600080fd5b600080fd5b60007fffffffff0000000000000000000000000000000000000000000000000000000082169050919050565b612701816126cc565b811461270c57600080fd5b50565b60008135905061271e816126f8565b92915050565b60006020828403121561273a576127396126c2565b5b60006127488482850161270f565b91505092915050565b60008115159050919050565b61276681612751565b82525050565b6000602082019050612781600083018461275d565b92915050565b600081519050919050565b600082825260208201905092915050565b60005b838110156127c15780820151818401526020810190506127a6565b838111156127d0576000848401525b50505050565b6000601f19601f8301169050919050565b60006127f282612787565b6127fc8185612792565b935061280c8185602086016127a3565b612815816127d6565b840191505092915050565b6000602082019050818103600083015261283a81846127e7565b905092915050565b6000819050919050565b61285581612842565b811461286057600080fd5b50565b6000813590506128728161284c565b92915050565b60006020828403121561288e5761288d6126c2565b5b600061289c84828501612863565b91505092915050565b600073ffffffffffffffffffffffffffffffffffffffff82169050919050565b60006128d0826128a5565b9050919050565b6128e0816128c5565b82525050565b60006020820190506128fb60008301846128d7565b92915050565b61290a816128c5565b811461291557600080fd5b50565b60008135905061292781612901565b92915050565b60008060408385031215612944576129436126c2565b5b600061295285828601612918565b925050602061296385828601612863565b9150509250929050565b61297681612751565b811461298157600080fd5b50565b6000813590506129938161296d565b92915050565b6000602082840312156129af576129ae6126c2565b5b60006129bd84828501612984565b91505092915050565b6129cf81612842565b82525050565b60006020820190506129ea60008301846129c6565b92915050565b600080600060608486031215612a0957612a086126c2565b5b6000612a1786828701612918565b9350506020612a2886828701612918565b9250506040612a3986828701612863565b9150509250925092565b600060208284031215612a5957612a586126c2565b5b6000612a6784828501612918565b91505092915050565b60008060408385031215612a8757612a866126c2565b5b6000612a9585828601612918565b9250506020612aa685828601612984565b9150509250929050565b600080fd5b600080fd5b7f4e487b7100000000000000000000000000000000000000000000000000000000600052604160045260246000fd5b612af2826127d6565b810181811067ffffffffffffffff82111715612b1157612b10612aba565b5b80604052505050565b6000612b246126b8565b9050612b308282612ae9565b919050565b600067ffffffffffffffff821115612b5057612b4f612aba565b5b612b59826127d6565b9050602081019050919050565b82818337600083830152505050565b6000612b88612b8384612b35565b612b1a565b905082815260208101848484011115612ba457612ba3612ab5565b5b612baf848285612b66565b509392505050565b600082601f830112612bcc57612bcb612ab0565b5b8135612bdc848260208601612b75565b91505092915050565b60008060008060808587031215612bff57612bfe6126c2565b5b6000612c0d87828801612918565b9450506020612c1e87828801612918565b9350506040612c2f87828801612863565b925050606085013567ffffffffffffffff811115612c5057612c4f6126c7565b5b612c5c87828801612bb7565b91505092959194509250565b60008060408385031215612c7f57612c7e6126c2565b5b6000612c8d85828601612918565b9250506020612c9e85828601612918565b9150509250929050565b7f4e487b7100000000000000000000000000000000000000000000000000000000600052601160045260246000fd5b6000612ce282612842565b9150612ced83612842565b9250827fffffffffffffffffffffffffffffffffffffffffffffffffffffffffffffffff03821115612d2257612d21612ca8565b5b828201905092915050565b7f4e487b7100000000000000000000000000000000000000000000000000000000600052602260045260246000fd5b60006002820490506001821680612d7457607f821691505b60208210811415612d8857612d87612d2d565b5b50919050565b7f4552433732313a20617070726f76616c20746f2063757272656e74206f776e6560008201527f7200000000000000000000000000000000000000000000000000000000000000602082015250565b6000612dea602183612792565b9150612df582612d8e565b604082019050919050565b60006020820190508181036000830152612e1981612ddd565b9050919050565b7f4552433732313a20617070726f76652063616c6c6572206973206e6f7420746f60008201527f6b656e206f776e6572206e6f7220617070726f76656420666f7220616c6c0000602082015250565b6000612e7c603e83612792565b9150612e8782612e20565b604082019050919050565b60006020820190508181036000830152612eab81612e6f565b9050919050565b7f4552433732313a2063616c6c6572206973206e6f7420746f6b656e206f776e6560008201527f72206e6f7220617070726f766564000000000000000000000000000000000000602082015250565b6000612f0e602e83612792565b9150612f1982612eb2565b604082019050919050565b60006020820190508181036000830152612f3d81612f01565b9050919050565b7f455243373231456e756d657261626c653a206f776e657220696e646578206f7560008201527f74206f6620626f756e6473000000000000000000000000000000000000000000602082015250565b6000612fa0602b83612792565b9150612fab82612f44565b604082019050919050565b60006020820190508181036000830152612fcf81612f93565b9050919050565b600081905092915050565b50565b6000612ff1600083612fd6565b9150612ffc82612fe1565b600082019050919050565b600061301282612fe4565b9150819050919050565b7f455243373231456e756d657261626c653a20676c6f62616c20696e646578206f60008201527f7574206f6620626f756e64730000000000000000000000000000000000000000602082015250565b6000613078602c83612792565b91506130838261301c565b604082019050919050565b600060208201905081810360008301526130a78161306b565b9050919050565b7f4e487b7100000000000000000000000000000000000000000000000000000000600052603260045260246000fd5b6000815190506130ec8161296d565b92915050565b600060208284031215613108576131076126c2565b5b6000613116848285016130dd565b91505092915050565b7f4552433732313a20696e76616c696420746f6b656e2049440000000000000000600082015250565b6000613155601883612792565b91506131608261311f565b602082019050919050565b6000602082019050818103600083015261318481613148565b9050919050565b7f4552433732313a2061646472657373207a65726f206973206e6f74206120766160008201527f6c6964206f776e65720000000000000000000000000000000000000000000000602082015250565b60006131e7602983612792565b91506131f28261318b565b604082019050919050565b60006020820190508181036000830152613216816131da565b9050919050565b600081905092915050565b600061323382612787565b61323d818561321d565b935061324d8185602086016127a3565b80840191505092915050565b60006132658285613228565b91506132718284613228565b91508190509392505050565b7f4f776e61626c653a206e6577206f776e657220697320746865207a65726f206160008201527f6464726573730000000000000000000000000000000000000000000000000000602082015250565b60006132d9602683612792565b91506132e48261327d565b604082019050919050565b60006020820190508181036000830152613308816132cc565b9050919050565b7f4f776e61626c653a2063616c6c6572206973206e6f7420746865206f776e6572600082015250565b6000613345602083612792565b91506133508261330f565b602082019050919050565b6000602082019050818103600083015261337481613338565b9050919050565b7f4552433732313a207472616e736665722066726f6d20696e636f72726563742060008201527f6f776e6572000000000000000000000000000000000000000000000000000000602082015250565b60006133d7602583612792565b91506133e28261337b565b604082019050919050565b60006020820190508181036000830152613406816133ca565b9050919050565b7f4552433732313a207472616e7366657220746f20746865207a65726f2061646460008201527f7265737300000000000000000000000000000000000000000000000000000000602082015250565b6000613469602483612792565b91506134748261340d565b604082019050919050565b600060208201905081810360008301526134988161345c565b9050919050565b60006134aa82612842565b91506134b583612842565b9250828210156134c8576134c7612ca8565b5b828203905092915050565b7f4552433732313a20617070726f766520746f2063616c6c657200000000000000600082015250565b6000613509601983612792565b9150613514826134d3565b602082019050919050565b60006020820190508181036000830152613538816134fc565b9050919050565b7f4552433732313a207472616e7366657220746f206e6f6e20455243373231526560008201527f63656976657220696d706c656d656e7465720000000000000000000000000000602082015250565b600061359b603283612792565b91506135a68261353f565b604082019050919050565b600060208201905081810360008301526135ca8161358e565b9050919050565b60006135dc82612842565b91507fffffffffffffffffffffffffffffffffffffffffffffffffffffffffffffffff82141561360f5761360e612ca8565b5b600182019050919050565b7f4e487b7100000000000000000000000000000000000000000000000000000000600052601260045260246000fd5b600061365482612842565b915061365f83612842565b92508261366f5761366e61361a565b5b828204905092915050565b600061368582612842565b915061369083612842565b9250826136a05761369f61361a565b5b828206905092915050565b600081519050919050565b600082825260208201905092915050565b60006136d2826136ab565b6136dc81856136b6565b93506136ec8185602086016127a3565b6136f5816127d6565b840191505092915050565b600060808201905061371560008301876128d7565b61372260208301866128d7565b61372f60408301856129c6565b818103606083015261374181846136c7565b905095945050505050565b60008151905061375b816126f8565b92915050565b600060208284031215613777576137766126c2565b5b60006137858482850161374c565b91505092915050565b7f4552433732313a206d696e7420746f20746865207a65726f2061646472657373600082015250565b60006137c4602083612792565b91506137cf8261378e565b602082019050919050565b600060208201905081810360008301526137f3816137b7565b9050919050565b7f4552433732313a20746f6b656e20616c7265616479206d696e74656400000000600082015250565b6000613830601c83612792565b915061383b826137fa565b602082019050919050565b6000602082019050818103600083015261385f81613823565b9050919050565b7f4e487b7100000000000000000000000000000000000000000000000000000000600052603160045260246000fdfea2646970667358221220c2d4757b462db40ae2ad299a26308cc7bf8b2324e02bbea6e9e521d9d98d9ce264736f6c63430008090033",
  "devdoc": {
    "kind": "dev",
    "methods": {
      "approve(address,uint256)": {
        "details": "See {IERC721-approve}."
      },
      "balanceOf(address)": {
        "details": "See {IERC721-balanceOf}."
      },
      "constructor": {
        "details": "ERC721 construcor takes a 'name' and a 'symbol' to the token collection.",
        "params": {
          "baseURI": "- set the i_baseTokenURI for the NFT collection",
          "name": "- set the name of the NFT token collection",
          "symbol": "- set the symbol of the NFT token collection",
          "whitelistContract": "- initialize an instance of the Whitelist contract"
        }
      },
      "getApproved(uint256)": {
        "details": "See {IERC721-getApproved}."
      },
      "isApprovedForAll(address,address)": {
        "details": "See {IERC721-isApprovedForAll}."
      },
      "mint()": {
        "details": "mint allows a user to mint 1 NFT per transaction after presale ended"
      },
      "name()": {
        "details": "See {IERC721Metadata-name}."
      },
      "owner()": {
        "details": "Returns the address of the current owner."
      },
      "ownerOf(uint256)": {
        "details": "See {IERC721-ownerOf}."
      },
      "presaleMint()": {
        "details": "presaleMint allows a user to mint one NFT per transaction during presale"
      },
      "renounceOwnership()": {
        "details": "Leaves the contract without owner. It will not be possible to call `onlyOwner` functions anymore. Can only be called by the current owner. NOTE: Renouncing ownership will leave the contract without an owner, thereby removing any functionality that is only available to the owner."
      },
      "safeTransferFrom(address,address,uint256)": {
        "details": "See {IERC721-safeTransferFrom}."
      },
      "safeTransferFrom(address,address,uint256,bytes)": {
        "details": "See {IERC721-safeTransferFrom}."
      },
      "setApprovalForAll(address,bool)": {
        "details": "See {IERC721-setApprovalForAll}."
      },
      "setPaused(bool)": {
        "details": "setPaused makes the contract paused or unpaused"
      },
      "startPresale()": {
        "details": "startPresale starts a presale for the whitelisted addresses"
      },
      "supportsInterface(bytes4)": {
        "details": "See {IERC165-supportsInterface}."
      },
      "symbol()": {
        "details": "See {IERC721Metadata-symbol}."
      },
      "tokenByIndex(uint256)": {
        "details": "See {IERC721Enumerable-tokenByIndex}."
      },
      "tokenOfOwnerByIndex(address,uint256)": {
        "details": "See {IERC721Enumerable-tokenOfOwnerByIndex}."
      },
      "tokenURI(uint256)": {
        "details": "See {IERC721Metadata-tokenURI}."
      },
      "totalSupply()": {
        "details": "See {IERC721Enumerable-totalSupply}."
      },
      "transferFrom(address,address,uint256)": {
        "details": "See {IERC721-transferFrom}."
      },
      "transferOwnership(address)": {
        "details": "Transfers ownership of the contract to a new account (`newOwner`). Can only be called by the current owner."
      },
      "withdraw()": {
        "details": "withdraw the Ether to the owner of the contract"
      }
    },
    "stateVariables": {
      "s_baseTokenURI": {
        "details": "i_baseTokenURI for computing {tokenURI}. If set, the resulting URI for each token will be the concatenation of the 'baseURI' and the 'tokenId'"
      }
    },
    "version": 1
  },
  "userdoc": {
    "kind": "user",
    "methods": {},
    "version": 1
  },
  "storageLayout": {
    "storage": [
      {
        "astId": 138,
        "contract": "contracts/CryptoDevs.sol:CryptoDevs",
        "label": "_name",
        "offset": 0,
        "slot": "0",
        "type": "t_string_storage"
      },
      {
        "astId": 140,
        "contract": "contracts/CryptoDevs.sol:CryptoDevs",
        "label": "_symbol",
        "offset": 0,
        "slot": "1",
        "type": "t_string_storage"
      },
      {
        "astId": 144,
        "contract": "contracts/CryptoDevs.sol:CryptoDevs",
        "label": "_owners",
        "offset": 0,
        "slot": "2",
        "type": "t_mapping(t_uint256,t_address)"
      },
      {
        "astId": 148,
        "contract": "contracts/CryptoDevs.sol:CryptoDevs",
        "label": "_balances",
        "offset": 0,
        "slot": "3",
        "type": "t_mapping(t_address,t_uint256)"
      },
      {
        "astId": 152,
        "contract": "contracts/CryptoDevs.sol:CryptoDevs",
        "label": "_tokenApprovals",
        "offset": 0,
        "slot": "4",
        "type": "t_mapping(t_uint256,t_address)"
      },
      {
        "astId": 158,
        "contract": "contracts/CryptoDevs.sol:CryptoDevs",
        "label": "_operatorApprovals",
        "offset": 0,
        "slot": "5",
        "type": "t_mapping(t_address,t_mapping(t_address,t_bool))"
      },
      {
        "astId": 1128,
        "contract": "contracts/CryptoDevs.sol:CryptoDevs",
        "label": "_ownedTokens",
        "offset": 0,
        "slot": "6",
        "type": "t_mapping(t_address,t_mapping(t_uint256,t_uint256))"
      },
      {
        "astId": 1132,
        "contract": "contracts/CryptoDevs.sol:CryptoDevs",
        "label": "_ownedTokensIndex",
        "offset": 0,
        "slot": "7",
        "type": "t_mapping(t_uint256,t_uint256)"
      },
      {
        "astId": 1135,
        "contract": "contracts/CryptoDevs.sol:CryptoDevs",
        "label": "_allTokens",
        "offset": 0,
        "slot": "8",
        "type": "t_array(t_uint256)dyn_storage"
      },
      {
        "astId": 1139,
        "contract": "contracts/CryptoDevs.sol:CryptoDevs",
        "label": "_allTokensIndex",
        "offset": 0,
        "slot": "9",
        "type": "t_mapping(t_uint256,t_uint256)"
      },
      {
        "astId": 7,
        "contract": "contracts/CryptoDevs.sol:CryptoDevs",
        "label": "_owner",
        "offset": 0,
        "slot": "10",
        "type": "t_address"
      },
      {
        "astId": 2114,
        "contract": "contracts/CryptoDevs.sol:CryptoDevs",
        "label": "s_baseTokenURI",
        "offset": 0,
        "slot": "11",
        "type": "t_string_storage"
      },
      {
        "astId": 2122,
        "contract": "contracts/CryptoDevs.sol:CryptoDevs",
        "label": "s_tokenIds",
        "offset": 0,
        "slot": "12",
        "type": "t_uint256"
      },
      {
        "astId": 2124,
        "contract": "contracts/CryptoDevs.sol:CryptoDevs",
        "label": "s_paused",
        "offset": 0,
        "slot": "13",
        "type": "t_bool"
      },
      {
        "astId": 2126,
        "contract": "contracts/CryptoDevs.sol:CryptoDevs",
        "label": "s_presaleStarted",
        "offset": 1,
        "slot": "13",
        "type": "t_bool"
      },
      {
        "astId": 2128,
        "contract": "contracts/CryptoDevs.sol:CryptoDevs",
        "label": "s_presaleEnded",
        "offset": 0,
        "slot": "14",
        "type": "t_uint256"
      },
      {
        "astId": 2131,
        "contract": "contracts/CryptoDevs.sol:CryptoDevs",
        "label": "whitelist",
        "offset": 0,
        "slot": "15",
        "type": "t_contract(IWhitelist)2365"
      }
    ],
    "types": {
      "t_address": {
        "encoding": "inplace",
        "label": "address",
        "numberOfBytes": "20"
      },
      "t_array(t_uint256)dyn_storage": {
        "base": "t_uint256",
        "encoding": "dynamic_array",
        "label": "uint256[]",
        "numberOfBytes": "32"
      },
      "t_bool": {
        "encoding": "inplace",
        "label": "bool",
        "numberOfBytes": "1"
      },
      "t_contract(IWhitelist)2365": {
        "encoding": "inplace",
        "label": "contract IWhitelist",
        "numberOfBytes": "20"
      },
      "t_mapping(t_address,t_bool)": {
        "encoding": "mapping",
        "key": "t_address",
        "label": "mapping(address => bool)",
        "numberOfBytes": "32",
        "value": "t_bool"
      },
      "t_mapping(t_address,t_mapping(t_address,t_bool))": {
        "encoding": "mapping",
        "key": "t_address",
        "label": "mapping(address => mapping(address => bool))",
        "numberOfBytes": "32",
        "value": "t_mapping(t_address,t_bool)"
      },
      "t_mapping(t_address,t_mapping(t_uint256,t_uint256))": {
        "encoding": "mapping",
        "key": "t_address",
        "label": "mapping(address => mapping(uint256 => uint256))",
        "numberOfBytes": "32",
        "value": "t_mapping(t_uint256,t_uint256)"
      },
      "t_mapping(t_address,t_uint256)": {
        "encoding": "mapping",
        "key": "t_address",
        "label": "mapping(address => uint256)",
        "numberOfBytes": "32",
        "value": "t_uint256"
      },
      "t_mapping(t_uint256,t_address)": {
        "encoding": "mapping",
        "key": "t_uint256",
        "label": "mapping(uint256 => address)",
        "numberOfBytes": "32",
        "value": "t_address"
      },
      "t_mapping(t_uint256,t_uint256)": {
        "encoding": "mapping",
        "key": "t_uint256",
        "label": "mapping(uint256 => uint256)",
        "numberOfBytes": "32",
        "value": "t_uint256"
      },
      "t_string_storage": {
        "encoding": "bytes",
        "label": "string",
        "numberOfBytes": "32"
      },
      "t_uint256": {
        "encoding": "inplace",
        "label": "uint256",
        "numberOfBytes": "32"
      }
    }
  }
}